:100000000C945D000C9485000C9485000C94850084
:100010000C9485000C9485000C9485000C9485004C
:100020000C9485000C9485000C9485000C941304AA
:100030000C9485000C9485000C9485000C9485002C
:100040000C9471030C9485000C94E1030C94BB0395
:100050000C9485000C9485000C9485000C9485000C
:100060000C9485000C9485000000000024002700FB
:100070002A0000000000250028002B0004040404CE
:100080000404040402020202020203030303030342
:10009000010204081020408001020408102001021F
:1000A00004081020000000080002010000030407FB
:1000B0000000000000000000EA0411241FBECFEF82
:1000C000D8E0DEBFCDBF11E0A0E0B1E0EEE8FDE09A
:1000D00002C005900D92A231B107D9F721E0A2E14B
:1000E000B1E001C01D92AA3FB207E1F710E0CDE5F3
:1000F000D0E004C02197FE010E94BF06CC35D10795
:10010000C9F70E9426050C94C5060C940000AF9216
:10011000BF92CF92DF92EF92FF920F931F93CF93F4
:10012000DF936C017B018B01040F151FEB015E0156
:10013000AE18BF08C017D10759F06991D601ED91EB
:10014000FC910190F081E02DC6010995892B79F78A
:10015000C501DF91CF911F910F91FF90EF90DF903C
:10016000CF90BF90AF900895FC01538D448D252F03
:1001700030E0842F90E0821B930B541710F0CF9641
:10018000089501970895FC01918D828D981761F073
:10019000A28DAE0FBF2FB11D5D968C91928D9F5F8A
:1001A0009F73928F90E008958FEF9FEF0895FC0169
:1001B000918D828D981731F0828DE80FF11D858D1C
:1001C00090E008958FEF9FEF08952FB7F8948091F6
:1001D0004D0190914E01A0914F01B09150012FBF60
:1001E0008093590190935A01A0935B01B0935C01F5
:1001F00081E591E00E94D70097FF26C02FB7F894C1
:1002000080914D0190914E01A0914F01B09150010C
:100210002FBF4091590150915A0160915B0170913B
:100220005C01841B950BA60BB70B409155015091B7
:100230005601609157017091580184179507A607E0
:10024000B707B0F28FEF9FEF0895CF92DF92EF9252
:10025000FF92CF930E94E500FC0197FD4EC08D32C6
:10026000910521F0C0970A9708F040C0C12CD12C0D
:100270007601C0E0E130F105D1F0ED32F105D9F1C0
:10028000CF01C0970A9798F4AAE0B0E0A7019601C1
:100290000E946F066F01FF0FEE08FF08C60ED71E03
:1002A000E81EF91E80E3C81AD108E108F10881E5CB
:1002B00091E00E94C3000E94E500FC01C0970A97EC
:1002C000C8F2E130F105B1F2CC2341F0F094E094B2
:1002D000D094C094C11CD11CE11CF11CC701B60113
:1002E000CF91FF90EF90DF90CF90089581E591E05E
:1002F0000E94C300AFCFC1E0DACFC12CD12C760170
:10030000EDCFFC01918D228D892F90E0805C9F4F75
:10031000821B91098F739927089581E591E00E94CE
:10032000810121E0892B09F420E0822F089580E0EB
:1003300090E0892B29F00E948D0181110C9400001E
:100340000895FC01A48DA80FB92FB11DA35ABF4F6A
:100350002C91848D90E001968F739927848FA689C4
:10036000B7892C93A089B1898C91837080648C9318
:10037000938D848D981306C00288F389E02D8081C7
:100380008F7D80830895EF92FF920F931F93CF93F9
:10039000DF93EC0181E0888F9B8D8C8D98131AC0C0
:1003A000E889F989808185FF15C09FB7F894EE89A7
:1003B000FF896083E889F989808183708064808304
:1003C0009FBF81E090E0DF91CF911F910F91FF904F
:1003D000EF900895F62E0B8D10E00F5F1F4F0F73F7
:1003E0001127E02E8C8D8E110CC00FB607FCFACFB2
:1003F000E889F989808185FFF5CFCE010E94A101AE
:10040000F1CFEB8DEC0FFD2FF11DE35AFF4FF08282
:100410009FB7F8940B8FEA89FB8980818062CFCFE8
:10042000CF93DF93EC01888D8823B9F0AA89BB892B
:10043000E889F9898C9185FD03C0808186FD0DC016
:100440000FB607FCF7CF8C9185FFF2CF808185FF37
:10045000EDCFCE010E94A101E9CFDF91CF910895A8
:1004600090E0FC01EC55FF4F2491FC01E057FF4F59
:100470003491FC01E458FF4FE491EE23C9F02223AC
:1004800039F0233001F1A8F4213019F1223029F19B
:10049000F0E0EE0FFF1FEE58FF4FA591B4918FB71C
:1004A000F894EC91611126C030953E233C938FBFA8
:1004B00008952730A9F02830C9F0243049F78091F9
:1004C00080008F7D03C0809180008F7780938000B3
:1004D000DFCF84B58F7784BDDBCF84B58F7DFBCF35
:1004E0008091B0008F778093B000D2CF8091B00020
:1004F0008F7DF9CF3E2BDACFCF92DF92EF92FF9232
:10050000CF93DF93EC01603282E07807CCF5653B56
:10051000710514F064EB70E0898128E830E0281B55
:10052000310987FD3395220F331F220F331F6901D5
:10053000330FEE08FF088A8128E532E0281B3109D5
:1005400087FD3395220F331F220F331F032E000C1C
:10055000440B550B2C193D094E095F09DB0177FF50
:1005600002C0B0E0A0E00E947A0624EB30E040E058
:1005700050E00E945006C20ED31EE41EF51EB601C6
:10058000E881EC3070F5298188E890E0821B9109C0
:1005900027FD9395880F991F880F991F6817790772
:1005A0007CF02A8188E592E0821B910927FD9395D2
:1005B000880F991F880F991F681779070CF4CB01D2
:1005C0000297880F991F4FB7F8942E2F30E0F9014A
:1005D000EE0FFF1FE20FF31FEC5EFE4F928381834D
:1005E0004FBFDF91CF91FF90EF90DF90CF900895B4
:1005F000CF93DF93DC018C918C3008F06EC0CB017F
:100600009927FC01E057FF4F249184589F4FFC012C
:100610008491882399F090E0880F991FFC01E85994
:10062000FF4FC591D491FC01EE58FF4F85919491F5
:100630008FB7F894E881E22BE8838FBF8C91282F45
:1006400030E0F901EE0FFF1FE20FF31FEC5EFE4FEB
:10065000962F9F736081607C692B608311961C923A
:10066000119712961C9212972CE0622F0E94B306EB
:10067000829FB001112430E020E0AB01420F531FF4
:10068000FA01EE0FFF1FE40FF51FEC5EFE4F9081A5
:1006900096FD16C02F5F3F4F2C30310571F7811149
:1006A0000FC01092800082E080938100109285003C
:1006B00010928400B19A80916F00826080936F00E5
:1006C000EC918E2F90E0FC01EE0FFF1FE80FF91F59
:1006D000EC5EFE4F8081806480838C91DF91CF91AE
:1006E00008951F920F920FB60F9211242F933F93EC
:1006F0008F939F93AF93BF9380914D0190914E0143
:10070000A0914F01B091500130914C0123E0230F93
:100710002D3758F50196A11DB11D20934C018093F2
:100720004D0190934E01A0934F01B09350018091E1
:10073000480190914901A0914A01B0914B01019665
:10074000A11DB11D8093480190934901A0934A01D6
:10075000B0934B01BF91AF919F918F913F912F919A
:100760000F900FBE0F901F90189526E8230F02964A
:10077000A11DB11DD2CF1F920F920FB60F9211245F
:100780002F933F934F935F936F937F938F939F9399
:10079000AF93BF93EF93FF9381E591E00E94A10196
:1007A000FF91EF91BF91AF919F918F917F916F9149
:1007B0005F914F913F912F910F900FBE0F901F901F
:1007C00018951F920F920FB60F9211242F938F93AB
:1007D0009F93EF93FF93E0916101F091620180811B
:1007E000E0916701F091680182FD1BC090818091CA
:1007F0006A018F5F8F7320916B01821741F0E09146
:100800006A01F0E0EF5AFE4F958F80936A01FF91E5
:10081000EF919F918F912F910F900FBE0F901F908E
:1008200018958081F4CF1F920F920FB60F9211246A
:100830002F933F934F935F936F937F938F939F93E8
:10084000AF93BF93CF93DF93EF93FF938091120108
:10085000C0911301D0E087FF24C010928500109250
:100860008400809112018F5F8093120180911201A8
:10087000082E000C990B8C179D0724F4809112010F
:100880008C30C4F18091840090918500049680346E
:100890009C4908F47AC08091840090918500049668
:1008A00076C080911201082E000C990B8C179D07C1
:1008B000C4F6E09112018E2FEE0F990BFC01EE0FA2
:1008C000FF1FE80FF91FEC5EFE4F808186FFC9CF46
:1008D000E09112018E2FEE0F990BFC01EE0FFF1F1E
:1008E000E80FF91FEC5EFE4F808160E08F730E947D
:1008F0003002B7CF2091840030918500E091120141
:100900008E2FEE0F990BFC01EE0FFF1FE80FF91F62
:10091000EC5EFE4F81819281820F931F909389003C
:1009200080938800E09112018E2FEE0F990BFC014D
:10093000EE0FFF1FE80FF91FEC5EFE4F808186FF70
:1009400011C0E09112018E2FEE0F990BFC01EE0FFA
:10095000FF1FE80FF91FEC5EFE4F808161E08F738F
:100960000E943002FF91EF91DF91CF91BF91AF9143
:100970009F918F917F916F915F914F913F912F91B7
:100980000F900FBE0F901F90189580E49CE99093F4
:100990008900809388008FEF80931201E3CFFC01E0
:1009A000909113019C3098F481E0890F809313019A
:1009B0009083892F90E0FC01EE0FFF1FE80FF91FD5
:1009C000EC5EFE4F88EB9BE09283818308958FEF6E
:1009D00080830895E1E5F1E01382128288EE93E0CE
:1009E000A0E0B0E084839583A683B78384E091E0A0
:1009F0009183808385EC90E09587848784EC90E0F8
:100A00009787868780EC90E0918B808B81EC90E0DB
:100A1000938B828B82EC90E0958B848B86EC90E0BC
:100A2000978B868B118E128E138E148E87EF91E02A
:100A30000E94CF0484EF91E00E94CF0481EF91E007
:100A40000E94CF048EEE91E00C94CF04789484B58C
:100A5000826084BD84B5816084BD85B5826085BDBA
:100A600085B5816085BD80916E00816080936E0048
:100A7000109281008091810082608093810080913A
:100A800081008160809381008091800081608093EB
:100A900080008091B10084608093B1008091B000AB
:100AA00081608093B00080917A00846080937A00A6
:100AB00080917A00826080937A0080917A008160D0
:100AC00080937A0080917A00806880937A001092F7
:100AD000C100E0916101F091620182E08083E091C8
:100AE0005D01F0915E0181E08083E0915F01F09112
:100AF000600180EA808310926901E0916501F091C4
:100B0000660186E08083E0916301F0916401808159
:100B100080618083E0916301F0916401808188604D
:100B20008083E0916301F09164018081806880831B
:100B3000E0916301F091640180818F7D808381E584
:100B400091E00E94810118161906CCF70E94250138
:100B500070933F0160933E010E94250170933D0117
:100B600060933C010E94250170933B0160933A0120
:100B70000E942501709339016093380181E591E06D
:100B80000E94C30088379105C1F08BE090E09093FC
:100B90003F0180933E018AE090E090933D01809375
:100BA0003C0189E090E090933B0180933A0186E01C
:100BB00090E0909339018093380160913E017091EB
:100BC0003F0187EF91E00E94F80260913C01709133
:100BD0003D0184EF91E00E94F80260913A0170912A
:100BE0003B0181EF91E00E94F80260913801709121
:100BF00039018EEE91E00E94F80204EB10E080E0F3
:100C0000282E80E0382E81E591E00E94810118169F
:100C10001906D4F50E942501EB01709347016093FA
:100C200046010E9425012B01709345016093440108
:100C30000E9425014B0170934301609342010E9481
:100C400025016B01709341016093400181E591E0C2
:100C50000E94C30088379105B1F6B8016C1B7D0B6B
:100C600087EF91E00E947C02B20184EF91E00E9444
:100C70007C02B40181EF91E00E947C02B6018EEE0D
:100C800091E00E947C02BFCF2114310409F4BBCF54
:100C90000E948D01882309F4B6CF0E940000B3CFD3
:100CA000052E97FB1EF400940E94670657FD07D09F
:100CB0000E94820607FC03D04EF40C946706509500
:100CC0004095309521953F4F4F4F5F4F0895909538
:100CD0008095709561957F4F8F4F9F4F08950E942B
:100CE000A406A59F900DB49F900DA49F800D911D0B
:100CF00011240895B7FF0C946F060E946F06821BA3
:100D0000930B0895A1E21A2EAA1BBB1BFD010DC077
:100D1000AA1FBB1FEE1FFF1FA217B307E407F507AB
:100D200020F0A21BB30BE40BF50B661F771F881F87
:100D3000991F1A9469F760957095809590959B011D
:100D4000AC01BD01CF010895A29FB001B39FC001C6
:100D5000A39F700D811D1124911DB29F700D811DE7
:100D60001124911D0895991B79E004C0991F9617CD
:100D700008F0961B881F7A95C9F780950895EE0FA5
:0E0D8000FF1F0590F491E02D0994F894FFCF29
:100D8E0000000000C3018700B40010028101C300FF
:020D9E00D7007C
:00000001FF
